:100000000C942A000C942C030C9455030C947E033E
:100010000C9447000C9447000C94B9040C946704AA
:100020000C9490040C943E040C94D0030C94A703FD
:100030000C9447000C9447000C9447000C94470024
:100040000C9447000C9447000C9447000C94470014
:100050000C94470011241FBECFE5D8E0DEBFCDBF12
:1000600010E0A0E6B0E0E6EEFBE002C005900D92E5
:10007000A239B107D9F720E0A2E9B0E001C01D9292
:10008000A23BB207E1F70E9498010C94F1050C9491
:100090000000CF93C82F60E083E00E943F026C2FE6
:1000A000661F6627661F8CE00E943F02C6FB66271C
:1000B00060F98AE00E943F02C5FB662760F989E08B
:1000C0000E943F02C4FB662760F988E00E943F025D
:1000D00061E082E00E943F028FE99FE00197F1F723
:1000E00000C0000060E082E00E943F028FE99FE0D4
:1000F0000197F1F700C00000C3FB662760F98CE0B0
:100100000E943F02C2FB662760F98AE00E943F021C
:10011000C1FB662760F989E00E943F026C2F617085
:1001200088E00E943F0261E082E00E943F028FE986
:100130009FE00197F1F700C0000060E082E00E94BC
:100140003F028FE99FE00197F1F700C00000CF91D7
:100150000895CF93C82F61E083E00E943F026C2F87
:10016000661F6627661F8CE00E943F02C6FB66275B
:1001700060F98AE00E943F02C5FB662760F989E0CA
:100180000E943F02C4FB662760F988E00E943F029C
:1001900061E082E00E943F028FE99FE00197F1F762
:1001A00000C0000060E082E00E943F028FE99FE013
:1001B0000197F1F700C00000C3FB662760F98CE0EF
:1001C0000E943F02C2FB662760F98AE00E943F025C
:1001D000C1FB662760F989E00E943F026C2F6170C5
:1001E00088E00E943F0261E082E00E943F028FE9C6
:1001F0009FE00197F1F700C0000060E082E00E94FC
:100200003F028FE99FE00197F1F700C00000CF9116
:1002100008952FEF80E792E0215080409040E1F771
:1002200000C0000082E00E94490088E20E9449006C
:100230008CE00E94490081E00E9449008FE99FE024
:100240000197F1F700C0000086E00C94490081118D
:1002500002C080E803C0813021F480EC860F0C944A
:10026000490008950F931F93CF938C01C0E0F801CC
:10027000EC0FF11D8081882321F00E94A900CF5F3F
:10028000F6CFCF911F910F9108958F929F92AF92C9
:10029000BF92EF92FF921F93CF93DF93CDB7DEB75C
:1002A0002A970FB6F894DEBF0FBECDBF611571055A
:1002B0008105910529F480E30E94A90010E01CC08B
:1002C00010E03AE0832E912CA12CB12CEE24E39483
:1002D000F12CEC0EFD1EE10EF11CA50194010E9413
:1002E000C005605DF7016083B901CA011F5F611538
:1002F00071058105910551F7115050F0E1E0F0E0F2
:10030000EC0FFD1FE10FF11D80810E94A900F4CFC9
:100310002A960FB6F894DEBF0FBECDBFDF91CF9106
:100320001F91FF90EF90BF90AF909F908F90089596
:10033000CF93DF9300D000D000D0CDB7DEB70E94BE
:10034000E0010E9409010E94650560E080E00E94D2
:10035000270180E690E00E94320160E081E00E9487
:10036000270186E690E00E94320178941E821D8269
:1003700019821A821B821C82BE016F5F7F4FCE01E1
:1003800005960E947B0565E080E00E9427016D8153
:100390007E8180E090E00E9445018CE690E00E9422
:1003A000320165E081E00E94270169817A818B81B9
:1003B0009C810E9445018CE690E00E943201DCCFD6
:1003C000CF93DF93C2E7D0E020E041E050E0999185
:1003D000822F8770322F369536953695323049F018
:1003E000333061F0313079F0EBE3F0E0AAE3B0E0D4
:1003F0000EC0E5E3F0E0A4E3B0E009C0E2E3F0E022
:10040000A1E3B0E004C0E8E3F0E0A7E3B0E091309E
:1004100001F188F0923061F53C91BA0102C0660F9B
:10042000771F8A95E2F7CB01962F909593239C93A3
:100430009081892B1CC03C91BA0102C0660F771FC6
:100440008A95E2F7CB01932F982B9C93908180950E
:100450000DC03C91BA0102C0660F771F8A95E2F782
:10046000CB018095932F98239C939081892380833F
:100470002F5F203209F0ABCFDF91CF910895982FF5
:1004800096959695969587706130C1F5913091F06B
:1004900028F09230D9F0933029F108954BB321E040
:1004A00030E0B90102C0660F771F8A95E2F7CB01F1
:1004B000842B38C048B321E030E0B90102C0660F98
:1004C000771F8A95E2F7CB01842B3AC045B321E030
:1004D00030E0B90102C0660F771F8A95E2F7CB01C1
:1004E000842B3CC042B321E030E0B90102C0660F6A
:1004F000771F8A95E2F7CB01842B3EC09130A1F0A3
:1005000028F09230F9F0933059F108954BB321E07F
:1005100030E0B90102C0660F771F8A95E2F7CB0180
:10052000809584238BBB089548B321E030E0B90166
:1005300002C0660F771F8A95E2F7CB01809584236E
:1005400088BB089545B321E030E0B90102C0660FD1
:10055000771F8A95E2F7CB018095842385BB0895A8
:1005600042B321E030E0B90102C0660F771F8A95DF
:10057000E2F7CB018095842382BB0895813039F066
:1005800018F0823039F008958BB7806405C08BB7BE
:10059000806802C08BB780628BBF0895813009F1FB
:1005A00018F08230C9F10895613061F028F06230AE
:1005B00079F0633081F0089585B78D7F85BF85B769
:1005C0008E7F28C085B7816085BF85B78D7F22C0AB
:1005D00085B78E7F02C085B7816085BF85B7826091
:1005E00019C0613049F028F0623061F0633069F081
:1005F000089585B78B7F02C085B7846085BF85B7B6
:10060000877F08C085B78B7F02C085B7846085BFB0
:1006100085B7886085BF0895623029F0633019F48A
:1006200084B7806402C084B78F7B84BF0895813013
:1006300049F018F0823059F0089570939700609354
:1006400096000895709395006093940008957093B8
:1006500093006093920008951F920F920FB60F922D
:1006600011242F933F934F935F936F937F938F93B7
:100670009F93AF93BF93EF93FF93E0919600F09118
:100680009700309709F00995FF91EF91BF91AF91D5
:100690009F918F917F916F915F914F913F912F919A
:1006A0000F900FBE0F901F9018951F920F920FB6CC
:1006B0000F9211242F933F934F935F936F937F93E8
:1006C0008F939F93AF93BF93EF93FF93E091940029
:1006D000F0919500309709F00995FF91EF91BF9146
:1006E000AF919F918F917F916F915F914F913F91CA
:1006F0002F910F900FBE0F901F9018951F920F9281
:100700000FB60F9211242F933F934F935F936F93E4
:100710007F938F939F93AF93BF93EF93FF93E0915A
:100720009200F0919300309709F00995FF91EF91B5
:10073000BF91AF919F918F917F916F915F914F91F9
:100740003F912F910F900FBE0F901F9018951F9201
:100750000F920FB60F9211242F933F934F935F93F5
:100760006F937F938F939F93AF93BF93EF93FF9379
:10077000E091A200F091A300309709F00995FF9154
:10078000EF91BF91AF919F918F917F916F915F9109
:100790004F913F912F910F900FBE0F901F90189582
:1007A0001F920F920FB60F9211242F933F934F93E6
:1007B0005F936F937F938F939F93AF93BF93EF93C9
:1007C000FF93E091A000F091A100309709F0099506
:1007D000FF91EF91BF91AF919F918F917F916F9119
:1007E0005F914F913F912F910F900FBE0F901F90EF
:1007F00018958230D9F050F4882379F0813071F562
:100800008FB58E7F8FBD8FB58D7F21C08330D1F0A6
:10081000843021F58FB5816017C08FB58E7F8FBD75
:100820008FB58D7F8FBD8EB5877F08C08FB58E7FCA
:100830008FBD8FB58D7F8FBD8EB588608EBD8EB517
:100840008F7E0BC08FB58E7F8FBD8FB582608FBDC1
:100850008EB588608EBD8EB580618EBD8EB5887F69
:100860008EBD8EB5682B6EBD089589B7846089BF33
:10087000089590939F0080939E0008951F920F9279
:100880000FB60F9211242F933F934F935F936F9363
:100890007F938F939F93AF93BF93EF93FF93E091D9
:1008A0009E00F0919F00309709F00995FF91EF911C
:1008B000BF91AF919F918F917F916F915F914F9178
:1008C0003F912F910F900FBE0F901F9018951F9280
:1008D0000F920FB60F9211242F933F934F935F9374
:1008E0006F937F938F939F93AF93BF93EF93FF93F8
:1008F000E0919C00F0919D00309709F00995FF91DF
:10090000EF91BF91AF919F918F917F916F915F9187
:100910004F913F912F910F900FBE0F901F90189500
:100920001F920F920FB60F9211242F933F934F9364
:100930005F936F937F938F939F93AF93BF93EF9347
:10094000FF93E0919A00F0919B00309709F0099590
:10095000FF91EF91BF91AF919F918F917F916F9197
:100960005F914F913F912F910F900FBE0F901F906D
:1009700018951F920F920FB60F9211242F933F9349
:100980004F935F936F937F938F939F93AF93BF9397
:10099000EF93FF93E0919800F0919900309709F060
:1009A0000995FF91EF91BF91AF919F918F917F91A9
:1009B0006F915F914F913F912F910F900FBE0F90CC
:1009C0001F9018958091A4009091A5000196909396
:1009D000A5008093A40008958091B0009091B1008B
:1009E000892B91F48CB59DB59093AF008093AE00A8
:1009F0001092A5001092A40081E090E09093B100C5
:100A00008093B00062E02FC08091B0009091B1005F
:100A1000019761F58CB59DB59093AD008093AC00C6
:100A200082E090E09093B1008093B0008091AC00A0
:100A30009091AD004091AE005091AF002091A40084
:100A40003091A500841B950B821B930B880F991F77
:100A5000880F991F9093A9008093A8001092A50079
:100A60001092A40063E080E00C94CE028091B0006C
:100A70009091B100029741F58CB59DB59093AB0074
:100A80008093AA008091AA009091AB004091AC00A5
:100A90005091AD002091A4003091A500841B950BCE
:100AA000821B930B880F991F880F991F9093A700A3
:100AB0008093A6001092A5001092A40083E090E01D
:100AC0009093B1008093B00008956CEE74E080E0E4
:100AD0000E94170363E080E00E94CE0280E00E9443
:100AE000BE0263E080E00E94F90382EE94E00E947F
:100AF00039040C9435040F931F93CF93DF938C012B
:100B0000EB018091B0009091B1000397A1F5209185
:100B1000A8003091A900E091A800F091A9004091AF
:100B2000A6005091A700A4E6B0E00E94E2059F0154
:100B3000240F351F40E050E00E94C005F8013183CA
:100B400020832091A8003091A9008091A600909167
:100B5000A700280F391F40E050E060E472E48FE006
:100B600090E00E94C005288339834A835B831092FA
:100B7000B1001092B000DF91CF911F910F910895B5
:100B8000A1E21A2EAA1BBB1BFD010DC0AA1FBB1F91
:100B9000EE1FFF1FA217B307E407F50720F0A21B03
:100BA000B30BE40BF50B661F771F881F991F1A9470
:100BB00069F760957095809590959B01AC01BD019A
:100BC000CF010895A29FB001B39FC001A39F700DF4
:100BD000811D1124911DB29F700D811D1124911D45
:060BE0000895F894FFCF18
:100BE600447574793A00467265713A0020202020D7
:100BF60020000100000000000000000000000000CE
:100C060000000000000000000000010001010101D9
:020C16000101DA
:00000001FF
